:020000040000FA
:04000000E6EF04F033
:1008000000202048656C6C6F20576F726C6421006B
:0108100000E7
:10081200CCEC04F08284829215C011F016C012F062
:1008220095EC04F011C019F012C01AF0000E1C6E03
:10083200000E1B6E31EF04F0828000F01B50152475
:10084200176E1C501620186E17C0F6FF18C0F7FF5F
:100852000800F5CF8AFF00F0829000F01B4A1C2AA4
:1008620019501B5C1C50800A176E1A50800A1758C8
:10087200D8A03EEF04F040EF04F01DEF04F01200A8
:10088200949094949492000E8B6E46EC05F0000EB8
:10089200146E010E136E000E166E000E156E000E13
:1008A200186E000E176EFDEC04F0000E146E010EB1
:1008B200136E000E166E010E156E000E186E000EEF
:1008C200176E2EEC05F0000E146E010E136E000E64
:1008D200166E010E156E13EC05F01200B2EC04F068
:1008E20041EC04F0020E1E6E450E1D6EAA0EE82E9D
:1008F200FED71D2EFCD71E2EFAD7010E156E080E3E
:10090200166E09EC04F0020E1E6E450E1D6EAA0E46
:10091200E82EFED71D2EFCD71E2EFAD742EC05F08C
:1009220073EF04F000EF00F011C013F012C014F0E6
:100932009DEF04F0114A122A11C0F6FF12C0F7FF10
:100942000800F5500009D8A4A9EF04F0ABEF04F0B9
:100952009BEF04F01350115C116E14501258126E7A
:100962001200000E0F015B6F000E926E000E896E78
:10097200000E5E6F0F0E956E000E8C6E000E5D6F98
:10098200000E946E000E8B6E000E5C6F000E936E66
:10099200000E8A6E1200800E116E9368829482821B
:1009A200DBEF04F0828000F08150800B116E00F0CA
:1009B200829000F01150D8A4E1EF04F0E3EF04F0CC
:1009C200D3EF04F0000E936E1200740EF66E0A0E50
:1009D200F76E000EF86E00EE01F010EE10F0090056
:1009E200F5CFEEFFE550E150FAE1000EF86E080E89
:1009F200F76E00016FEF04F017C019F0D8901936A6
:100A0200D890193615C01AF0D8901A36D8901A36DE
:100A1200D8901A361338F00B1A101910200921EC4D
:100A220005F0120015C017F0D8901736D890173677
:100A32001338E842F80B1710100921EC05F01200E8
:100A4200126ECCEC04F082948292828000F012C08A
:100A52008AFF00F0829000F01200D8901534196ECF
:100A62001344E846FC0B19101710080921EC05F095
:100A720012000102030A0405060B0708090C0E0006
:100A82000F0D020E21EC05F01200010E21EC05F013
:020A9200120050
:020000040020DA
:08000000FFFFFFFFFFFFFFFF00
:020000040030CA
:0E00000000285F3CFFD385FF0FC00FE00F40CC
:00000001FF
