:020000040000FA
:04000000C6EF3DF01A
:107AEE00010E9EEC3DF01200C00E9EEC3DF0120019
:0E7AFE0003500324051004099EEC3DF0120015
:107B0D000102030A0405060B0708090C0E000F0DF0
:107B1D0031313578343400D8900534096E0344E89A
:107B2D0046FC0B0910071008099EEC3DF0120002EF
:107B3D006EEFEC3DF082948292828000F002C08A5A
:107B4D00FF00F0829000F01200026EEFEC3DF0822B
:107B5D00848292828000F002C08AFF00F082900041
:107B6D00F0120005C007F0D8900736D890073603FD
:107B7D0038E842F80B071010099EEC3DF012000D8D
:107B8D000EF66E7B0EF76E000EF86E00EE1AF0100C
:107B9D00EE17F00900F5CFEEFFE550E150FAE100E8
:107BAD00015CEF3FF007C009F0D8900936D8900975
:107BBD003605C00AF0D8900A36D8900A36D8900A01
:107BCD00360338F00B0A10091020099EEC3DF01217
:107BDD0000800E016E936882948282FEEF3DF082EA
:107BED008000F08150800B016E00F0829000F0015A
:107BFD0050D8A404EF3EF006EF3EF0F6EF3DF00056
:107C0D000E936E120001C003F002C004F011EF3E9E
:107C1D00F0014A022A01C0D9FF02C0DAFFDF50D8B5
:107C2D00A41BEF3EF01DEF3EF00FEF3EF0035001B1
:107C3D005C016E04500258026E1200000E0F015BC3
:107C4D006F000E926E000E896E000E5E6F0F0E9518
:107C5D006E000E8C6E000E5D6F9490949494920055
:107C6D000E8B6E000E5C6F000E936E000E8A6E1200
:107C7D000077EC3DF0000E046E010E036E000E0653
:107C8D006E010E056E000E086E000E076ED9EC3DEE
:107C9D00F0000E046E010E036E000E066E010E0551
:107CAD006E000E086E010E076E92EC3DF0000E0494
:107CBD006E010E036E000E066E000E056E7FEC3D1E
:107CCD00F01200EFEC3DF08284829205C001F006C7
:107CDD00C002F009EC3EF001C008F002C009F0004E
:107CED000E0B6E000E0A6E92EF3EF0828000F00ACF
:107CFD00500524D96E0B500620DA6EDF508A6E00C7
:107D0D00F0829000F0520E076E2A0EE82EFED70775
:107D1D002EFCD70A4A0B2A08500A5C0B50800A0722
:107D2D006E0950800A0758D8A09FEF3EF0A1EF3E94
:107D3D00F07CEF3EF01200000E066E02BEABEF3E81
:107D4D00F0A9EF3EF0B1EF3EF0016C021ED8B0028B
:107D5D002A010E066E04BEB8EF3EF0B6EF3EF0BC43
:107D6D00EF3EF0036C041ED8B0042A03500410D863
:107D7D00B4C3EF3EF0C5EF3EF0E9EF3EF0010E0566
:107D8D006ECDEF3EF0D89003360436052A04AED200
:107D9D00EF3EF0D4EF3EF0C9EF3EF00350015C042E
:107DAD00500258D8A0DDEF3EF0DFEF3EF0E3EF3E9E
:107DBD00F00350015E0450025AD89004320332058C
:107DCD002ED4EF3EF00650D8B4EFEF3EF0F1EF3E7B
:107DDD00F0F5EF3EF0016C021ED8B0022A01C00191
:107DED00F002C002F01200000E066E04BE03EF3F5B
:107DFD00F001EF3FF009EF3FF0036C041ED8B00423
:107E0D002A010E066E02BE10EF3FF00EEF3FF01688
:107E1D00EF3FF0016C021ED8B0022A010E061A00C7
:107E2D000E086E000E076E03500410D8B421EF3FFC
:107E3D00F023EF3FF04BEF3FF0010E056E2BEF3FC0
:107E4D00F0D89003360436052A04AE30EF3FF032F9
:107E5D00EF3FF027EF3FF0D890073608360350017B
:107E6D005C04500258D8A03EEF3FF040EF3FF04584
:107E7D00EF3FF00350015E0450025A0780D8900482
:107E8D00320332052E32EF3FF00650D8B451EF3F9A
:107E9D00F053EF3FF057EF3FF0076C081ED8B008D6
:107EAD002A07C001F008C002F0120020EE2AF010DF
:107EBD00EE0EF0060EDBCFE3FFE806FCE224EC3E0F
:107ECD00F03FEC3EF00E0E056E000E066E68EC3EB9
:107EDD00F07BEC3DF0000E176E000E166E000E04DA
:107EED006E000E036E000E066E010E056EB8EC3DB3
:107EFD00F0164A172A17BE8DEF3FF0175009E10F04
:107F0D000E165CD8A08DEF3FF08FEF3FF075EF3F71
:107F1D00F0000E046E000E036E000E066E000E05D0
:107F2D006E7FEC3DF0130E196EC40E186EBEEF3F52
:107F3D00F018C001F019C002F0000E046E0A0E0315
:107F4D006EA2EC3EF00150156E300E15261550AB9D
:107F5D00EC3DF018C001F019C002F0000E046E0ADD
:107F6D000E036EFAEC3EF001C018F002C019F018C5
:107F7D00501910D8A4C5EF3FF0C7EF3FF09FEF3F6A
:107F8D00F0000E046E010E036E000E066E000E055F
:107F9D006E000E086E000E076E92EC3DF0000E04A2
:107FAD006E010E036E000E066E000E056E7FEC3D2B
:107FBD00F0030E0D6E8A0E0C6E560EE82EFED70CCB
:107FCD002EFCD70D2EFAD777EC3DF0000E046E0186
:107FDD000E036E000E066E010E056E000E086E018C
:107FED000E076E92EC3DF077EC3DF069EF3FF0003F
:037FFD00EF00F0A2
:020000040020DA
:08000000FFFFFFFFFFFFFFFF00
:020000040030CA
:0E00000000285F3CFFD385FF0FC00FE00F40CC
:00000001FF
