:020000040000FA
:0400000058EF06F0BF
:1008000000313233342A353637380000000E0A6E94
:1008100008BE0FEF04F00DEF04F019EF04F0081E0E
:10082000071E061E056C000E062207220822010E76
:100830000A6E04BE20EF04F01EEF04F02AEF04F06D
:10084000041E031E021E016C000E0222032204225B
:10085000010E0A1A000E0B6E000E0C6E000E0D6ECD
:10086000000E0E6E0550061007100810D8B43BEFAE
:1008700004F03DEF04F073EF04F0010E096E47EF52
:1008800004F0D8900536063607360836092A08AE31
:100890004CEF04F04EEF04F041EF04F0D8900B362B
:1008A0000C360D360E360550015C065002580750C6
:1008B000035808500458D8A060EF04F062EF04F029
:1008C0006BEF04F00550015E0650025A0750035AC0
:1008D0000850045A0B80D89008320732063205328D
:1008E000092E4EEF04F00A50D8B479EF04F07BEFF4
:1008F00004F083EF04F00E1E0D1E0C1E0B6C000E98
:100900000C220D220E220BC001F00CC002F00DC013
:1009100003F00EC004F01200000E176E000E166EEB
:10092000000E046E000E036E000E066E010E056EC4
:1009300085EC06F0164A172A17BEA8EF04F01750E8
:1009400009E10F0E165CD8A0A8EF04F0AAEF04F09E
:1009500090EF04F0000E046E000E036E000E066EA3
:10096000000E056EC1EC06F0E9EF04F00FC001F0D7
:1009700010C002F011C003F012C004F00A0E056EA0
:10098000000E066E000E076E000E086E0EEC05F0EF
:100990000150156E300E1526155093EC06F00FC061
:1009A00001F010C002F011C003F012C004F00A0EF2
:1009B000056E000E066E000E076E000E086E06EC49
:1009C00004F001C00FF002C010F003C011F004C029
:1009D00012F00F50101011101210D8A4F2EF04F002
:1009E000F4EF04F0B6EF04F0000E046E010E036E97
:1009F000000E066E000E056E000E086E000E076EED
:100A0000ADEC06F0030E146E8A0E136E560EE82E31
:100A1000FED7132EFCD7142EFAD71200000E0A6E42
:100A200004BE17EF05F015EF05F021EF05F0041EE9
:100A3000031E021E016C000E022203220422010E7C
:100A40000A6E08BE28EF05F026EF05F030EF05F03E
:100A5000081E071E061E056C000E0622072208222D
:100A60000550061007100810D8B439EF05F03BEF19
:100A700005F06BEF05F0010E096E45EF05F0D8901B
:100A80000536063607360836092A08AE4AEF05F05D
:100A90004CEF05F03FEF05F00550015C06500258A1
:100AA0000750035808500458D8A059EF05F05BEFE1
:100AB00005F063EF05F00550015E0650025A07503D
:100AC000035A0850045AD8900832073206320532C9
:100AD000092E4CEF05F00A50D8B471EF05F073EF12
:100AE00005F07BEF05F0041E031E021E016C000ED4
:100AF00002220322042201C001F002C002F003C05E
:100B000003F004C004F012003EEC06F082848292EE
:100B100005C001F006C002F0ECEC05F001C009F0E0
:100B200002C00AF0000E0C6E000E0B6EB3EF05F063
:100B3000828000F00B500524076E0C500620086ED2
:100B400007C0F6FF08C0F7FF0800F5CF8CFF00F0E4
:100B5000829000F0520E076E2A0EE82EFED7072E66
:100B6000FCD70B4A0C2A09500B5C0C50800A076E0C
:100B70000A50800A0758D8A0C0EF05F0C2EF05F070
:100B800098EF05F01200CCEC06F0000E046E010E9A
:100B9000036E000E066E010E056E000E086E000E4E
:100BA000076E6FEC06F0000E046E010E036E000E71
:100BB000066E010E056E000E086E010E076EADEC9E
:100BC00006F0000E046E010E036E000E066E000E9F
:100BD000056EC1EC06F0120001C003F002C004F083
:100BE000F4EF05F0014A022A01C0F6FF02C0F7FF48
:100BF0000800F5500009D8A400EF06F002EF06F057
:100C0000F2EF05F00350015C016E04500258026ED1
:100C10001200000E0F015B6F000E926E000E896EC7
:100C2000000E5C6F0F0E936E000E8A6E000E5D6FED
:100C3000949094949492000E8B6E000E5E6F000E52
:100C4000956E000E8C6E120009EC06F0C3EC05F0F8
:100C5000010E056E080E066E84EC05F0C8EC06F079
:100C6000BC0E0F6EE90E106E6A0E116E000E126E43
:100C70008CEC04F026EF06F000EF00F0800E016E21
:100C80009568829482824DEF06F0828000F0835056
:100C9000800B016E00F0829000F00150D8A453EF59
:100CA00006F055EF06F045EF06F0000E956E1200C7
:100CB000720EF66E0D0EF76E000EF86E00EE18F066
:100CC00010EE10F00900F5CFEEFFE550E150FAE12B
:100CD000000EF86E080EF76E000124EF06F007C054
:100CE00009F0D8900936D890093605C00AF0D89096
:100CF0000A36D8900A36D8900A360338F00B0A1014
:100D000009102009A0EC06F0120005C007F0D890E9
:100D10000736D89007360338E842F80B0710100959
:100D2000A0EC06F01200026E3EEC06F08284829285
:100D3000828000F002C08CFF00F0829000F0120070
:100D4000026E3EEC06F082948292828000F002C035
:100D50008CFF00F0829000F01200D8900534096EEC
:100D60000344E846FC0B091007100809A0EC06F044
:100D700012000102030A0405060B0708090C0E0005
:100D80000F0D0350032405100409A0EC06F0120017
:100D9000C00EA0EC06F01200010EA0EC06F012004E
:020000040020DA
:08000000FFFFFFFFFFFFFFFF00
:020000040030CA
:0E00000000285F3CFFD385FF0FC00FE00F40CC
:00000001FF
