:020000040000FA
:0400000003EF3BF0DF
:10756800010EDBEC3AF01200016E0150D00F120050
:10757800C00EDBEC3AF01200035003240510040996
:10758800DBEC3AF012003132332B3435362D3738F4
:10759800392A5230232FD8900534096E0344E8461F
:1075A800FC0B091007100809DBEC3AF01200026E18
:1075B8002EEC3BF082948292828000F002C08CFF15
:1075C80000F0829000F01200026E2EEC3BF08284F4
:1075D8008292828000F002C08CFF00F0829000F05E
:1075E800120005C007F0D8900736D8900736033840
:1075F800E842F80B07101009DBEC3AF012008E0E87
:10760800F66E750EF76E000EF86E00EE3BF010EE9B
:1076180010F00900F5CFEEFFE550E150FAE1000E59
:10762800F86E000181EF3DF007C009F0D8900936E7
:10763800D890093605C00AF0D8900A36D8900A368C
:10764800D8900A360338F00B0A1009102009DBEC31
:107658003AF01200800E016E9568829482823DEFA6
:107668003BF0828000F08350800B016E00F0829026
:1076780000F00150D8A443EF3BF045EF3BF035EF65
:107688003BF0000E956E1200000E0F015B6F000EAE
:10769800926E000E896E000E5C6F0F0E936E000ED8
:1076A8008A6E000EF16E0F0E856E000E5D6F94905F
:1076B80094949492000E8B6E000E5E6F000E956E81
:1076C800000E8C6E1200B4EC3AF0000E046E010E3F
:1076D800036E000E066E010E056E000E086E000E9B
:1076E800076E18EC3BF0000E046E010E036E000EE0
:1076F800066E010E056E000E086E010E076ECFECC9
:107708003AF0000E046E010E036E000E066E000EB7
:10771800056EC0EC3AF01200000E096E000E0A6EFB
:10772800000E0B6E000E0C6E01A09DEF3BF09FEF5C
:107738003BF0A7EF3BF00550092606500A220750F8
:107748000B2208500C22D890053606360736083624
:10775800D890043203320232013201500210031071
:107768000410D8A4BAEF3BF0BCEF3BF098EF3BF025
:1077780009C001F00AC002F00BC003F00CC004F00D
:107788001200000E096E000E0A6E000E0B6E000E3F
:107798000C6E0550061007100810D8B4D6EF3BF051
:1077A800D8EF3BF00EEF3CF0010E0D6EE2EF3BF030
:1077B800D89005360636073608360D2A08AEE7EFA4
:1077C8003BF0E9EF3BF0DCEF3BF0D89009360A36A6
:1077D8000B360C360550015C06500258075003580A
:1077E80008500458D8A0FBEF3BF0FDEF3BF006EF44
:1077F8003CF00550015E0650025A0750035A0850E3
:10780800045A0980D89008320732063205320D2E04
:10781800E9EF3BF009C001F00AC002F00BC003F029
:107828000CC004F01200800E0A6E000E0D6E000EE1
:107838000C6E0A50FF0AF00B096E080E0B6E095009
:107848000F098A6E000E0F6E000E0E6E0B50FF0AA7
:107858000F0B086E09500810076E07508118D8A43E
:1078680038EF3CF03AEF3CF05CEF3CF081CF03F0AE
:107878000F0E03160338F00B896E0CC003F00DC011
:1078880004F0D89003360436D8900336043601C085
:1078980005F002C006F003500526045006220E50DB
:1078A8000524D96E0F500620DA6EDF5084EF3CF0C5
:1078B800D8900B300B6E0E4A0F2A0FBE6DEF3CF0BE
:1078C8000F5009E1040E0E5CD8A06DEF3CF06FEF8D
:1078D8003CF02AEF3CF0D8900A300A6E0C4A0D2A88
:1078E8000DBE80EF3CF00D5009E1040E0C5CD8A0F1
:1078F80080EF3CF082EF3CF01DEF3CF017EF3CF0DE
:107908001200000E0A6E04BE8EEF3CF08CEF3CF0C5
:1079180098EF3CF0041E031E021E016C000E0222AA
:1079280003220422010E0A6E08BE9FEF3CF09DEF71
:107938003CF0A7EF3CF0081E071E061E056C000E63
:107948000622072208220550061007100810D8B48E
:10795800B0EF3CF0B2EF3CF0E2EF3CF0010E096E04
:10796800BCEF3CF0D8900536063607360836092AAB
:1079780008AEC1EF3CF0C3EF3CF0B6EF3CF0055069
:10798800015C065002580750035808500458D8A004
:10799800D0EF3CF0D2EF3CF0DAEF3CF00550015E5E
:1079A8000650025A0750035A0850045AD890083211
:1079B800073206320532092EC3EF3CF00A50D8B41C
:1079C800E8EF3CF0EAEF3CF0F2EF3CF0041E031E57
:1079D800021E016C000E02220322042201C001F0E3
:1079E80002C002F003C003F004C004F01200000E4D
:1079F8000A6E08BE04EF3DF002EF3DF00EEF3DF0D9
:107A0800081E071E061E056C000E06220722082205
:107A1800010E0A6E04BE15EF3DF013EF3DF01FEFA7
:107A28003DF0041E031E021E016C000E02220322FA
:107A38000422010E0A1A000E0B6E000E0C6E000EC8
:107A48000D6E000E0E6E0550061007100810D8B403
:107A580030EF3DF032EF3DF068EF3DF0010E096E7A
:107A68003CEF3DF0D8900536063607360836092A29
:107A780008AE41EF3DF043EF3DF036EF3DF0D890D2
:107A88000B360C360D360E360550015C0650025882
:107A98000750035808500458D8A055EF3DF057EF49
:107AA8003DF060EF3DF00550015E0650025A075068
:107AB800035A0850045A0B80D8900832073206320D
:107AC8000532092E43EF3DF00A50D8B46EEF3DF071
:107AD80070EF3DF078EF3DF00E1E0D1E0C1E0B6C86
:107AE800000E0C220D220E220BC001F00CC002F079
:107AF8000DC003F00EC004F01200000E376E000E29
:107B0800386E48EC3BF067EC3BF03B0E016E000E24
:107B1800026E17EC3CF03A6E3A50B8EC3AF0366E1A
:107B28002B0E3A18D8B49BEF3DF09DEF3DF0B8EF1F
:107B38003DF02D0E3A18D8B4A4EF3DF0A6EF3DF075
:107B4800B8EF3DF02A0E3A18D8B4ADEF3DF0AFEFDC
:107B58003DF0B8EF3DF02F0E3A18D8A4B6EF3DF03F
:107B6800B8EF3DF0C1EF3DF03A50E8EC3AF03AC0DA
:107B780037F039C038F01BEF3EF0230E3A18D8A47E
:107B8800C8EF3DF0CAEF3DF0E9EF3DF039C00EF027
:107B980038C00FF0240E106E000E116E3750D0EC66
:107BA8003EF00EC032F00FC033F010C034F011C0F8
:107BB80035F032C00FF033C010F034C011F035C0CA
:107BC80012F027EC3EF01BEF3EF0520E3A18D8A404
:107BD800F0EF3DF0F2EF3DF0FCEF3DF067EC3BF0ED
:107BE800000E376E000E396E000E386E1BEF3EF039
:107BF8003A50E8EC3AF03750D8B405EF3EF007EFCA
:107C08003EF012EF3EF0240E3824D96EDA6A000EE8
:107C1800DA2236C0DFFF382A1BEF3EF0240E392463
:107C2800D96EDA6A000EDA2236C0DFFF392A410E31
:107C3800236EEE0EE82EFED7232EFCD700D089EF58
:107C48003DF000EF00F0BCEC3AF0000E166E000EAE
:107C5800156E000E046E000E036E000E066E010E09
:107C6800056EF5EC3AF0154A162A16BE45EF3EF0B9
:107C7800165009E10F0E155CD8A045EF3EF047EF0E
:107C88003EF02DEF3EF0000E046E000E036E000E67
:107C9800066E000E056EC0EC3AF0000E136E12BEB2
:107CA8005AEF3EF058EF3EF0ABEF3EF00FC001F058
:107CB80010C002F011C003F012C004F0FF0E056EF0
:107CC800FF0E066EFF0E076EFF0E086E90EC3BF07F
:107CD80001C00FF002C010F003C011F004C012F090
:107CE800010E136EABEF3EF00FC001F010C002F0B2
:107CF80011C003F012C004F00A0E056E000E066EE5
:107D0800000E076E000E086E85EC3CF00150146EF4
:107D1800300E14261450E8EC3AF00FC001F010C0F1
:107D280002F011C003F012C004F00A0E056E000E36
:107D3800066E000E076E000E086EFBEC3CF001C0EC
:107D48000FF002C010F003C011F004C012F00F5081
:107D5800101011101210D8A4B4EF3EF0B6EF3EF098
:107D680078EF3EF01350D8B4BCEF3EF0BEEF3EF0D3
:107D7800C1EF3EF02D0EE8EC3AF0000E046E010E55
:107D8800036E000E066E000E056E000E086E000EE5
:107D9800076ECFEC3AF01200146E000E1B6E000E48
:107DA8001C6E000E1D6E000E1E6E000E1F6E000E65
:107DB800206E000E216E000E226E000E196E0EEF60
:107DC8003FF01BC001F01CC002F01DC003F01EC034
:107DD80004F00A0E056E000E066E000E076E000E09
:107DE800086E90EC3BF001C01BF002C01CF003C011
:107DF8001DF004C01EF019501024D96E000E112079
:107E0800DA6EDF50126E12501B26000E1C221D2245
:107E18001E22192A0E50195CD8A015EF3FF017EF53
:107E28003FF0E5EF3EF00EC01AF044EF3FF01FC000
:107E380001F020C002F021C003F022C004F00A0EB5
:107E4800056E000E066E000E076E000E086E90ECB2
:107E58003BF001C01FF002C020F003C021F004C0B5
:107E680022F01A501024D96E000E1120DA6EDF505D
:107E7800126E12501F26000E2022212222221A2AB8
:107E88000F501A5CD8A04BEF3FF04DEF3FF01BEFBF
:107E98003FF0E2EF3FF01F501B240E6E20501C20D5
:107EA8000F6E21501D20106E22501E20116EFFEF04
:107EB8003FF01F501B5C20501C5821501D58225069
:107EC8001E58D8B06AEF3FF06CEF3FF09CEF3FF0E0
:107ED8001B501F5C156E1C502058166E1D502158E3
:107EE800176E1E502258186E15C001F016C002F009
:107EF80017C003F018C004F0FF0E056EFF0E066EE3
:107F0800FF0E076EFF0E086E90EC3BF001C015F0F7
:107F180002C016F003C017F004C018F015C00EF028
:107F280016C00FF017C010F018C011F0FFEF3FF0A7
:107F38001F501B5C0E6E20501C580F6E21501D5890
:107F4800106E22501E58116EFFEF3FF01BC001F05B
:107F58001CC002F01DC003F01EC004F01FC005F0D5
:107F680020C006F021C007F022C008F090EC3BF0DA
:107F780001C00EF002C00FF003C010F004C011F0F1
:107F8800FFEF3FF01BC001F01CC002F01DC003F062
:107F98001EC004F01FC005F020C006F021C007F085
:107FA80022C008F0C5EC3BF001C00EF002C00FF093
:107FB80003C010F004C011F0FFEF3FF01450126E30
:107FC800136A1350000AD8B4ECEF3FF0FFEF3FF00C
:107FD80012502A0AD8B4AAEF3FF0010AD8B44FEFDA
:107FE8003FF0060AD8B45DEF3FF0020AD8B4C6EFF6
:087FF8003FF0FFEF3FF0120023
:020000040020DA
:08000000FFFFFFFFFFFFFFFF00
:020000040030CA
:0E00000000285F3CFFD385FF0FC00FE00F40CC
:00000001FF
