:020000040000FA
:040000003AEF09F0DA
:10080000004F70733A202B2C202D2C202A2C202FC7
:100810000042617369632043616C632E0000146EB3
:10082000000E176E000E186E000E196E000E1A6E76
:10083000000E1B6E000E1C6E000E1D6E000E1E6E56
:10084000000E156E4DEF04F017C001F018C002F055
:1008500019C003F01AC004F00A0E056E000E066EF1
:10086000000E076E000E086E70EC08F001C017F065
:1008700002C018F003C019F004C01AF0155010247B
:10088000D96E000E1120DA6EDF50126E125017264C
:10089000000E182219221A22152A0E50155CD8A013
:1008A00054EF04F056EF04F024EF04F00EC016F0FD
:1008B00083EF04F01BC001F01CC002F01DC003F068
:1008C0001EC004F00A0E056E000E066E000E076EC6
:1008D000000E086E70EC08F001C01BF002C01CF0A6
:1008E00003C01DF004C01EF016501024D96E000E77
:1008F0001120DA6EDF50126E12501B26000E1C22E1
:100900001D221E22162A0F50165CD8A08AEF04F072
:100910008CEF04F05AEF04F0E2EF04F01B501724C0
:100920000E6E1C5018200F6E1D501920106E1E5098
:100930001A20116E07EF05F01B50175C0E6E1C504D
:1009400018580F6E1D501958106E1E501A58116EFF
:1009500007EF05F017C001F018C002F019C003F04E
:100960001AC004F01BC005F01CC006F01DC007F043
:100970001EC008F070EC08F001C00EF002C00FF0CD
:1009800003C010F004C011F007EF05F017C001F02C
:1009900018C002F019C003F01AC004F01BC005F023
:1009A0001CC006F01DC007F01EC008F0DEEC07F00A
:1009B00001C00EF002C00FF003C010F004C011F02F
:1009C00007EF05F01450126E136A1350000AD8B4E2
:1009D000ECEF04F0FFEF04F012502A0AD8B4AAEFAB
:1009E00004F0010AD8B48EEF04F0060AD8B49CEFE4
:1009F00004F0020AD8B4C6EF04F0FFEF04F0000ED2
:100A00000E6E000E0F6E000E106E000E116E1200B4
:100A1000000E346E000E366E000E356ECEEC08F011
:100A2000A5EC08F0110E056E080E066E30EC08F00D
:100A300092EC09F0010E056E080E066E30EC08F01F
:100A4000070E206E580E1F6E5A0EE82EFED71F2E70
:100A5000FCD7202EFAD79AEC09F0380E016E000E62
:100A6000026E70EC07F0376E375096EC09F0336E7B
:100A70002B0E3718D8B43FEF05F041EF05F05CEFCF
:100A800005F02D0E3718D8B448EF05F04AEF05F001
:100A90005CEF05F02A0E3718D8B451EF05F053EF8C
:100AA00005F05CEF05F02F0E3718D8A45AEF05F0CB
:100AB0005CEF05F065EF05F037505DEC09F037C0ED
:100AC00034F036C035F0BFEF05F0230E3718D8A448
:100AD0006CEF05F06EEF05F08DEF05F036C00EF00F
:100AE00035C00FF0210E106E000E116E34500FEC59
:100AF00004F00EC02FF00FC030F010C031F011C064
:100B000032F02FC00FF030C010F031C011F032C001
:100B100012F0CBEC05F0BFEF05F0520E3718D8A459
:100B200094EF05F096EF05F0A0EF05F0A5EC08F0C6
:100B3000000E346E000E366E000E356EBFEF05F0FF
:100B400037505DEC09F03450D8B4A9EF05F0ABEFA5
:100B500005F0B6EF05F0210E3524D96EDA6A000EE5
:100B6000DA2233C0DFFF352ABFEF05F0210E36242D
:100B7000D96EDA6A000EDA2233C0DFFF362A410E60
:100B80001F6EEE0EE82EFED71F2EFCD700D02DEFE5
:100B900005F000EF00F092EC09F0000E166E000E6A
:100BA000156E000E046E000E036E000E066E010E32
:100BB000056E4FEC09F0154A162A16BEE9EF05F04E
:100BC000165009E10F0E155CD8A0E9EF05F0EBEF28
:100BD00005F0D1EF05F0000E046E000E036E000E5E
:100BE000066E000E056E8BEC09F0000E136E12BE41
:100BF000FEEF05F0FCEF05F04FEF06F00FC001F03F
:100C000010C002F011C003F012C004F0FF0E056E18
:100C1000FF0E066EFF0E076EFF0E086E70EC08F0FA
:100C200001C00FF002C010F003C011F004C012F0B8
:100C3000010E136E4FEF06F00FC001F010C002F06E
:100C400011C003F012C004F00A0E056E000E066E0D
:100C5000000E076E000E086EFAEC06F00150146EDE
:100C6000300E142614505DEC09F00FC001F010C0D6
:100C700002F011C003F012C004F00A0E056E000E5F
:100C8000066E000E076E000E086E74EC06F001C0D2
:100C90000FF002C010F003C011F004C012F00F50AA
:100CA000101011101210D8A458EF06F05AEF06F0E9
:100CB0001CEF06F01350D8B460EF06F062EF06F0B8
:100CC00065EF06F02D0E5DEC09F0000E046E010ECE
:100CD000036E000E066E000E056E000E086E000E0E
:100CE000076E77EC09F01200000E0A6E08BE7DEF69
:100CF00006F07BEF06F087EF06F0081E071E061EC3
:100D0000056C000E062207220822010E0A6E04BEA0
:100D10008EEF06F08CEF06F098EF06F0041E031E2F
:100D2000021E016C000E022203220422010E0A1A86
:100D3000000E0B6E000E0C6E000E0D6E000E0E6E91
:100D40000550061007100810D8B4A9EF06F0ABEF55
:100D500006F0E1EF06F0010E096EB5EF06F0D8904F
:100D60000536063607360836092A08AEBAEF06F009
:100D7000BCEF06F0AFEF06F0D8900B360C360D3610
:100D80000E360550015C06500258075003580850B3
:100D90000458D8A0CEEF06F0D0EF06F0D9EF06F059
:100DA0000550015E0650025A0750035A0850045A73
:100DB0000B80D8900832073206320532092EBCEF7C
:100DC00006F00A50D8B4E7EF06F0E9EF06F0F1EFCD
:100DD00006F00E1E0D1E0C1E0B6C000E0C220D22BA
:100DE0000E220BC001F00CC002F00DC003F00EC0CB
:100DF00004F01200000E0A6E04BE03EF07F001EFCC
:100E000007F00DEF07F0041E031E021E016C000E1A
:100E1000022203220422010E0A6E08BE14EF07F01C
:100E200012EF07F01CEF07F0081E071E061E056CE8
:100E3000000E06220722082205500610071008108F
:100E4000D8B425EF07F027EF07F057EF07F0010EB2
:100E5000096E31EF07F0D8900536063607360836AA
:100E6000092A08AE36EF07F038EF07F02BEF07F04E
:100E70000550015C065002580750035808500458AA
:100E8000D8A045EF07F047EF07F04FEF07F0055008
:100E9000015E0650025A0750035A0850045AD8906F
:100EA0000832073206320532092E38EF07F00A50B1
:100EB000D8B45DEF07F05FEF07F067EF07F0041EAF
:100EC000031E021E016C000E02220322042201C036
:100ED00001F002C002F003C003F004C004F01200ED
:100EE000800E0A6E000E0D6E000E0C6E0A50FF0A88
:100EF000F00B096E080E0B6E09500F098A6E000E7A
:100F00000F6E000E0E6E0B50FF0A0F0B086E09508D
:100F10000810076E07508118D8A491EF07F093EFDF
:100F200007F0B5EF07F081CF03F00F0E031603387B
:100F3000F00B896E0CC003F00DC004F0D89003369E
:100F40000436D8900336043601C005F002C006F01E
:100F500003500526045006220E500524D96E0F506A
:100F60000620DA6EDF50DDEF07F0D8900B300B6E05
:100F70000E4A0F2A0FBEC6EF07F00F5009E1040E0C
:100F80000E5CD8A0C6EF07F0C8EF07F083EF07F0BC
:100F9000D8900A300A6E0C4A0D2A0DBED9EF07F020
:100FA0000D5009E1040E0C5CD8A0D9EF07F0DBEF7F
:100FB00007F076EF07F070EF07F01200000E096EF1
:100FC000000E0A6E000E0B6E000E0C6E0550061021
:100FD00007100810D8B4EFEF07F0F1EF07F027EF94
:100FE00008F0010E0D6EFBEF07F0D89005360636BF
:100FF000073608360D2A08AE00EF08F002EF08F0B9
:10100000F5EF07F0D89009360A360B360C36055046
:10101000015C065002580750035808500458D8A0E5
:1010200014EF08F016EF08F01FEF08F00550015E0E
:101030000650025A0750035A0850045A0980D890A3
:1010400008320732063205320D2E02EF08F009C0D1
:1010500001F00AC002F00BC003F00CC004F0120053
:101060000AEC09F08284829205C001F006C002F009
:10107000EDEC08F001C009F002C00AF0000E0C6EA1
:10108000000E0B6E60EF08F0828000F00B5005241C
:10109000076E0C500620086E07C0F6FF08C0F7FF69
:1010A0000800F5CF8CFF00F0829000F0110E076E63
:1010B0003A0EE82EFED7072EFCD700D00B4A0C2A9A
:1010C00009500B5C0C50800A076E0A50800A0758C2
:1010D000D8A06DEF08F06FEF08F044EF08F01200B1
:1010E000000E096E000E0A6E000E0B6E000E0C6EE6
:1010F00001A07DEF08F07FEF08F087EF08F00550C2
:10110000092606500A2207500B2208500C22D890BC
:101110000536063607360836D890043203320232D6
:1011200001320150021003100410D8A49AEF08F005
:101130009CEF08F078EF08F009C001F00AC002F057
:101140000BC003F00CC004F012009AEC09F0000E82
:10115000046E010E036E000E066E010E056E000E8B
:10116000086E000E076E24EC09F0000E046E010EEE
:10117000036E000E066E010E056E000E086E010E67
:10118000076E77EC09F0000E046E010E036E000E80
:10119000066E000E056E8BEC09F01200000E0F01BA
:1011A0005B6F000E926E000E896E000E5C6F0F0E6C
:1011B000936E000E8A6E000EF16E0F0E856E000E9D
:1011C0005D6F949094949492000E8B6E000E5E6FFF
:1011D000000E956E000E8C6E120001C003F002C06E
:1011E00004F0F5EF08F0014A022A01C0F6FF02C040
:1011F000F7FF0800F5500009D8A401EF09F003EF4C
:1012000009F0F3EF08F00350015C016E045002583E
:10121000026E1200800E016E95688294828219EF30
:1012200009F0828000F08350800B016E00F0829004
:1012300000F00150D8A41FEF09F021EF09F011EFE1
:1012400009F0000E956E120007C009F0D89009361B
:10125000D890093605C00AF0D8900A36D8900A36D8
:10126000D8900A360338F00B0A10091020096AECEE
:1012700009F01200060EF66E130EF76E000EF86EF1
:1012800000EE38F010EE10F00900F5CFEEFFE5505B
:10129000E150FAE1000EF86E000108EF05F005C01C
:1012A00007F0D8900736D89007360338E842F80B95
:1012B000071010096AEC09F01200026E0AEC09F03E
:1012C00082848292828000F002C08CFF00F08290C3
:1012D00000F01200026E0AEC09F082948292828081
:1012E00000F002C08CFF00F0829000F01200D89055
:1012F0000534096E0344E846FC0B09100710080981
:101300006AEC09F012003132332B3435362D373880
:10131000392A5230232F03500324051004096AECA4
:1013200009F01200C00E6AEC09F01200016E0150C3
:0C133000D00F1200010E6AEC09F0120050
:020000040020DA
:08000000FFFFFFFFFFFFFFFF00
:020000040030CA
:0E00000000285F3CFFD385FF0FC00FE00F40CC
:00000001FF
